:020000040800F2
:1000000078050020D5000008CD180008FF1600086C
:1000100000000000000000000000000000000000E0
:10002000000000000000000000000000071A0008A7
:10003000000000000000000015190008091A00085F
:10004000E7000008E7000008E7000008E7000008F4
:10005000E7000008E7000008E700000809020008C0
:10006000E7000008E7000008E7000008E7000008D4
:10007000E7000008E7000008E7000008D91A0008B8
:10008000E7000008E7000008E700000800000000A3
:10009000E7000008E7000008E7000008E7000008A4
:1000A000E700000819190008E7000008E700000849
:1000B000E7000008E7000008E7000008E700000884
:1000C0000348854600F08EF8004800471D220008CE
:1000D000780500200448804704480047FEE7FEE713
:1000E000FEE7FEE7FEE7FEE7851A0008C10000080C
:1000F00030B50B46014600202022012409E00D46C0
:10010000D5409D4205D31D469540491B2546954047
:1001100040191546521E002DF1DC30BDF0B51FB45C
:100120000646002082B005464024019100901BE065
:10013000019922460F46304600F042F8049A059B8A
:10014000801A994110D310461946224600F028F82B
:10015000361A8F410197224601200021009F00F0AE
:100160001FF838184D4100902046641E0028DFDC3F
:10017000019B00982946324607B0F0BDD2B201E09B
:100180000270401C491EFBD270470022F6E710B5F2
:1001900013460A4604461946FFF7F0FF204610BDF5
:1001A00010B5202A04DB0146203A9140002010BD02
:1001B000914020239C1A0346E3401943904010BD10
:1001C00010B5202A04DB0846203AD040002110BD9B
:1001D0000B46D340D0402024A21A91400843194630
:1001E00010BD0000064C0125064E05E0E36807CC73
:1001F0002B430C3C98471034B442F7D3FFF764FF0D
:100200000C2300082C23000810B5102000F0BAF8C9
:100210000120400300F0B6F810BD704770B500240F
:10022000014620314A79022A03D00421C163012406
:1002300018E0026813680E25AB4313600268136868
:100240005B085B001360436C1C22134001221546BF
:100250009D40036C5D604A7100220A71816B002928
:1002600000D08847204670BD70B5044600F05EF9A6
:100270000546601C02D004480078241800F056F9A6
:10028000401BA042FAD370BD20000020F8B5012128
:1002900049030126244C884242D12078002804D00A
:1002A0000025012809D02570F8BD204801F02CF860
:1002B00026701FA001F068FEF8BD1C4801F034F85C
:1002C000257020A001F060FEA18824A001F05CFE52
:1002D000617805272A483F07002902D0012910D05C
:1002E0001CE0A188022919D366700122022100F0C6
:1002F00017F901222021384600F012F901F080FFA1
:100300000CE0A188052909D965700022022100F0BE
:1003100007F900222021384600F002F9A580F8BD37
:100320001028FCD1A670F8BD00000020BC00002001
:10033000425554544F4E2069732070726573736533
:10034000640D0A00425554544F4E20697320726563
:100350006C65617365640D0A0000000042555454D9
:100360004F4E206973207072657373656420666FE9
:10037000722025643030206D730D0A0D0A000000D4
:100380000008005010B504494A69024202D0486191
:10039000FFF77CFF10BD000000040140FCB5002306
:1003A0000124A7E027462A469F403A406FD04D6877
:1003B000012D05D0022D03D0112D01D0122D16D103
:1003C00085680326AC465D00AE46AE406546B54343
:1003D000AC46CE687546AE4065462E43866046689C
:1003E0000D79BE43ED06ED0F9D4035434560C6686F
:1003F0005F000325BD40AE46AE4335468E68BE4025
:100400002E43C6604E68022E01D0122E14D1DE0893
:10041000B60036180196366A5D07B446EE0E0F2513
:10042000B54000966646AE43B4460D69009EB540A1
:1004300066462E43019D2E6206687546AE430D79D1
:10044000AD07AD0FBD40354305604D68ED0050D59B
:100450002B4D6E6B26436E639E082A4DB6007519B0
:10046000AC46AD689E07360F0F27B740BD43052742
:100470003F07B84201D100271AE0234FB84201D10B
:10048000012715E0214FB84202D1022710E030E0E9
:100490001F4FB84201D103270AE01E4FB84201D1D5
:1004A000042705E01C4FB84201D1052700E00627CC
:1004B000B7402F436546AF60184D2E684F6896438E
:1004C000FF0300D516432E606E684F689643BF0346
:1004D00000D516436E60AE684F689643FF0200D5A4
:1004E0001643AE60EE684F689643BF0200D51643D0
:1004F000EE605B1C0A681546DA4000D052E7FCBD8E
:1005000000100240000001400004005000080050AC
:10051000000C005000100050001C0050000401406E
:10052000002A01D08161704781627047014880686C
:100530007047000020000020024881680278891876
:10054000816070472000002010B508480024016831
:10055000402211430160204600F00AF8002801D033
:10056000012401E000F026F8204610BD00200240E2
:1005700070B504460D4D7D202978C000FFF7B8FD09
:1005800001460B480068FFF7B3FD00F057FE002856
:1005900009D1042C07D200222146401E00F020F889
:1005A00000206C6070BD012070BD000020000020A4
:1005B0001C0000200448416B012211434163816B00
:1005C000020411438163704700100240C106C90E46
:1005D00001208840014908607047000000E100E008
:1005E00010B501F075F910BDF8B504460068664D08
:1005F000810601D400057DD5634E0027403EB06BD7
:10060000C00004D4B06B31040843B06301275F48D5
:100610000168C90511D40168821511430160FFF713
:1006200085FF009005E0FFF781FF0099401A6428DC
:1006300044D856480068C005F5D531680320000548
:10064000626801401040884205D10323A0681B0561
:100650001840884208D09003800F032804D13068E6
:10066000800301D50120F8BD286903210904084051
:1006700029D00A40824202D02278920606D4A2688B
:100680000A4082421FD0208800051CD528692A69AB
:1006900088430121C9040A432A612A698A432A61DD
:1006A0002861C0050FD5FFF741FF009008E0FFF774
:1006B0003DFF0099411A3648814201D90320F8BD17
:1006C00028698005F3D561688803800F032805D168
:1006D00032680005824301400A43326028690322E0
:1006E00061681204114008432861002F06D0B06BE6
:1006F000012100E002E009078843B0632078C007C9
:1007000005D0E868E168800880000843E860207848
:10071000800705D5E8680C21884321690843E86013
:100720002078400706D5E86803218902884361697B
:100730000843E8602078000706D5E868032109032C
:100740008843A1690843E8602088C00506D5E868A9
:10075000032109048843E1690843E86020784006E2
:1007600006D5E868012189068843616A0843E86084
:100770002078000606D5E868032189048843216AA9
:100780000843E8600020F8BD4010024000700040BF
:1007900088130000F8B50E4605007DD05348006868
:1007A000C007C00FB0420AD250480168490849004A
:1007B000314301600068C007C00FB04271D1287892
:1007C0004B4C800705D5E068F0218843A9680843B1
:1007D000E0602878C00752D06868022817D0032844
:1007E00018D02168012818D08905002959DAE16854
:1007F000890889000143E160FFF798FE69680746B0
:10080000022912D003291CD0012926D033E0216807
:100810008903EAE721688901E7E74907E5E7FFF788
:1008200085FEC11B3348814223D8E0680007800F52
:100830000228F4D123E0FFF779FEC11B2D48814245
:1008400017D8E0680007800F0328F4D117E0FFF7FE
:100850006DFEC11B274881420BD8E0680007800F5E
:100860000128F4D10BE0FFF761FEC11B2148814252
:1008700001D90320F8BDE0680007800FF3D11B48C1
:100880000168C907C90FB1420DD90168490849007B
:1008900031430160006800E003E0C007C00FB042D0
:1008A00001D00120F8BD2878400706D5E06807216F
:1008B00009028843E9680843E0602878000707D503
:1008C000E0680721C90288432969C9000843E0603C
:1008D00000F036F8E168084A0906090F515CC84083
:1008E000064908600020FFF743FEF8BD00200240E3
:1008F0000010024088130000E82200081C000020BD
:10090000044805490068C968044A4905490F515C13
:10091000C84070471C00002000100240012300085E
:10092000044805490068C968044A8904490F515CB4
:10093000C84070471C00002000100240012300083E
:1009400010B5184AD1680C20084004280BD008289C
:1009500010D00C2810D050680004410F0120C003B3
:10096000491C884010BD1068C00601D50E4810BD56
:100970000E4810BD0E4810BD88020E4B000F185CCB
:100980000902D368890F491CDB0301D5084A05E039
:100990001268D20601D5044A00E0044A5043FFF72A
:1009A000A7FB10BD0010024000093D000024F40028
:1009B00000127A00F8220008FEB505007ED0F94C3E
:1009C000E7680C20E668074001200004064028780C
:1009D000C00747D0082F05D00C2F0AD101200004F2
:1009E000864206D1206880033CD568680028E5D09F
:1009F00038E0012069680004814203D12168014385
:100A0000216011E0052301221B0492049942216810
:100A100002D111432160F1E7814321602168014047
:100A20000091206890432060686800280DD0FFF78F
:100A30007DFD009005E0FFF779FD0099401A6428DC
:100A40007ED820688003F6D50CE0FFF76FFD00909C
:100A500005E0FFF76BFD0099401A6428F0D8206884
:100A60008003F6D4287880075CD5E868810604D531
:100A7000226820210A43226088430923042F0DD0D5
:100A80000C2F01D1002E09D000283BD021689943BA
:100A900001432160FFF74AFD064627E02168490728
:100AA00001D500288AD061681F22120291432A6969
:100AB0001202114361602168994300E0C3E10143E0
:100AC0002160FFF73DFFE16809060A0FB649895C1E
:100AD000C840B64908600020FFF74AFD002873D1DE
:100AE00020E0FFF723FD801B0228A9D820684007DB
:100AF000F7D560681F210902884329690902084364
:100B000060600FE02068400840002060FFF70EFDA5
:100B1000064604E0FFF70AFD801B022890D82068F3
:100B20004007F7D42878C00660D5002F0DD0E869BB
:100B300000284AD02068FF2101310843206000E0EE
:100B4000E8E0FFF7F3FC06462CE02068800502D5BC
:100B5000E8690028A6D06068072149038843696ACC
:100B6000084360606068298C0002000A0906084397
:100B70006060686A410B0120C003491C8840E1683D
:100B800009060A0F8849895CC84088490860002026
:100B9000FFF7EEFC002817D128E0FFF7C7FC801B09
:100BA0000228A2D820688005F7D56068072149038C
:100BB0008843696A084360606068298C0002000A03
:100BC00009060843606011E023E12168FF2001303D
:100BD00081432160FFF7AAFC064604E0FFF7A6FC6C
:100BE000801B02289AD820688005F7D42878704E98
:100BF000000724D568690028306910D00121084316
:100C00003061FFF793FC009005E0FFF78FFC00993F
:100C1000401A02287ED830698007F6D50FE04008D8
:100C200040003061FFF782FC009005E0FFF77EFC9A
:100C30000099401A02286DD830698007F6D42878C8
:100C4000400764D500200290A06BC00006D4A06BC2
:100C5000012109070843A06301200290554801685B
:100C6000C90511D40168821511430160FFF75EFCCC
:100C7000009005E0FFF75AFC0099401A642849D813
:100C80004C480068C005F5D5FF20AA6801308242B3
:100C900003D131690143316111E001218902002A48
:100CA00007D005231B029A4203D132690A433261FD
:100CB000EFE7326982433261306988433061A86866
:100CC00000280ED0FFF732FC009006E0FFF72EFC64
:100CD0000099411A384881421CD830698005F5D501
:100CE0000DE0FFF723FC009006E0FFF71FFC0099E2
:100CF000411A314881420DD830698005F5D40298F7
:100D0000002804D0A06B012109078843A06328783C
:100D1000800600E07CE02ED52848A969431400290C
:100D200016D0A26801210A43A260626B0A43626383
:100D3000016A19430162FFF7F9FB064604E0FFF779
:100D4000F5FB801B022863D8A0688007F7D512E066
:100D5000A16849084900A160016A99430162FFF74F
:100D6000E5FB064604E0FFF7E1FB801B02284FD8B5
:100D7000A0688007F7D4A86A002866D00C2F4DD051
:100D8000012636060228206805D0B0432060FFF710
:100D9000CDFB05463EE0B0432060FFF7C7FB0746AA
:100DA00013E0000000100240E82200081C000020B0
:100DB0004010024000700040881300000000014015
:100DC000FFF7B4FBC01B022822D820688001F7D4AB
:100DD000296BE86AE2680843696BFD231B049A43A8
:100DE00011430843E060206830432060FFF79EFB1A
:100DF000054604E0FFF79AFB401B022808D820684C
:100E00008001F7D521E0FFF791FB401B022801D9B3
:100E10000320FEBD20688001F5D416E00128F8D03B
:100E2000E06801210904EA6A014091420BD10F21D7
:100E300089042A6B0140914205D1032189050840AC
:100E4000696B884201D00120FEBD0020FEBD7047C5
:100E5000F8B5016804464A688868C043430606D569
:100E6000C30704D1D3435B0601D4216C05E083079B
:100E700006D4D3431B0603D4616C20468847F8BDD3
:100E8000830603D5430601D5C305F8D4D3439B0697
:100E9000F5D4234645064033002D09DB5D7C032D48
:100EA00048D0656D042635436565CD688D6800952D
:100EB000860601274025002E07DB666D3E436665EA
:100EC0008E6800960E68AE430E60C00506D4606D55
:100ED000082108436065206880680090606D0028E4
:100EE000CDD020684168E026B14341605F7490072F
:100EF00001D4D00722D02068416889088900416068
:100F0000E06C104E002808D08663E06CFFF786F98D
:100F1000002802D0606D28436065A06C0028AED028
:100F20008663A06CFFF77AF90028A8D0606D28438B
:100F30006065F8BDC86888680090F8BD2046FFF776
:100F400086FFF8BD2919000870B5040007D00026F7
:100F500025464035A662687C002802D005E00120C5
:100F600070BD2E74204600F02FF8022068742068AF
:100F70000168402291430160A168606822690843CA
:100F8000E16811430843616901220843A1695202E3
:100F900011400843E1690843216A0843A16A0843F4
:100FA00021680860A0690421000C0840616A0843B8
:100FB000216848602068C16992009143C1616665FB
:100FC00001206874002070BD70B586B004461421FD
:100FD0006846FFF7DAF81A49206888422DD1194887
:100FE000416B821411434163C16A01221143C16202
:100FF000C16A11400591C16A02242143C162C06ADD
:10100000002520400590C0200326694671C10520B7
:10101000694600070495FFF7C1F90820694671C1C8
:10102000694609480495FFF7B9F900220221192001
:10103000FFF7D6FA1920FFF7C9FA06B070BD000015
:10104000003001400010024000040050FFB504468B
:1010500083B0012001900020264640360090307C6D
:101060000C9F1D4601280FD001203074FFF75EFA57
:101070000290707C616801280DD0CA1FFD3A08D12A
:10108000A168002905D102E0022007B0F0BD0428C4
:1010900001D00220C3E00498002828D00598002839
:1010A00025D0002D23D0707C042801D00520707439
:1010B000002060650599A163E587A58704992163F0
:1010C000E586A5862064606420680168490603D42B
:1010D00001684022114301600121E068C902884291
:1010E000606848D1002804D0012D02D03CE00120E6
:1010F00095E0206B21680088C860206B801C20630D
:10110000E08E401EE0862FE020688168890710D5B8
:10111000E18E00290DD0019901290AD1216B09889E
:10112000C160206B801C2063E08E401EE0860020A2
:10113000019020688168C9070DD0E18F00290AD08D
:10114000C068A16B0880A06B801CA063E08F401E6C
:10115000E08701200190FFF7E9F901460298081A9B
:10116000B84201D3781C59D1E08E0028CCD1E08F51
:101170000028C9D146E0002801D0012D3CD1206BC8
:10118000216800780873206B401C2063E08E401EAD
:10119000E08631E020688168890710D5E18E00295A
:1011A0000DD0019901290AD1216B09780173206BB7
:1011B000401C2063E08E401EE086002001902068E5
:1011C0008168C9070DD0E18F00290AD0C068A16BE2
:1011D0000870A06B401CA063E08F401EE0870120D8
:1011E0000190FFF7A3F90299401AB84202D3781C84
:1011F00002D013E0002F11D0E08E0028CAD1E08F7A
:101200000028C7D139462046029A00F095FB0028F5
:1012100007D0012000902020606509E003200090A5
:1012200006E0A068002803D12068C16880680190AA
:101230000120707400203074009826E7094910B529
:10124000401E884201D9012010BD074C6061032176
:10125000081F00F03DFB0020A06107202061002056
:1012600010BD0000FFFFFF0000E000E0F0B5024607
:101270002032137E012B15D00127177602235376D7
:1012800005686C68AB687026B4430E6849682643ED
:101290008024A34319436E60006881605776002064
:1012A0001076F0BD0220F0BD70B5040005D02546D3
:1012B0002035687E002802D006E0012070BD0020A5
:1012C0002876204600F00AF802206876211D206862
:1012D00000F00AFC01206876002070BD10B500689F
:1012E0000121890788420CD10648816B01221143F4
:1012F0008163002201210F20FFF772F90F20FFF711
:1013000065F910BD001002400268D36801210B434B
:10131000D360006882685207520F062A02D0026822
:101320000A430260002070470168CA6852085200F0
:10133000CA600068016A044A114203D10168490881
:10134000490001600020704711110000F8B5054602
:1013500004462035287E012817D001262E7602204B
:101360006876226890687727FF23B8431B0298436A
:1013700090600A68502A31D00EDC202A4BD006DC5F
:10138000002A48D0102A3AD145E00220F8BD302A80
:1013900041D0402A33D136E0602A27D0702A12D0BB
:1013A00001200003121A2AD0824228D1CB684A6851
:1013B0008968206800F0CCFB2068816801229203D4
:1013C000114381601BE0CB684A688968206800F09F
:1013D000BFFB216888683843886010E0CA684968A4
:1013E000206800F0C8FB5021206806E0CA68496800
:1013F000206800F0D1FB6021206800F0B4FB6E761D
:1014000000202876F8BDCA684968206800F0B3FB60
:1014100040212068F1E711462068EEE7704770B57B
:101420000446006801690025C9438907002915DBC6
:10143000C168C943890711D4E91E016101202076E2
:10144000206880698007204602D0FFF7E7FF04E0AC
:1014500000F078F8204600F076F8257620680169DB
:10146000C943490717D4C168C943490713D40421A4
:10147000C943016102202076206880698005800FC1
:10148000204602D0FFF7CAFF04E000F05BF82046D8
:1014900000F059F8257620680169C943090716D478
:1014A000C168C943090712D40821C9430161042056
:1014B00020762068C0698007204602D0FFF7AEFF83
:1014C00004E000F03FF8204600F03DF82576206863
:1014D0000169C943C90617D4C168C943C90613D4F1
:1014E0001021C9430161082020762068C069800569
:1014F000800F204602D0FFF791FF04E000F022F8B1
:10150000204600F020F8257620680169C943C90704
:1015100008D1C168C943C90704D1891E01612046A9
:1015200000F012F820680169C943490609D4C1686E
:10153000C943490605D44021C9430161204600F052
:1015400013F870BD70477047006801218907884211
:1015500006D104480178012902D18188491C818083
:101560007047000000000020704710B5040003D051
:10157000606F002802D007E0012010BD002170201C
:101580000155204600F026F8242060672068016895
:10159000490849000160204600F0A6FB0128ECD074
:1015A000606A002802D0204600F009FB20684168EC
:1015B0000922D20291434160206881682A22914326
:1015C000816020680168012211430160204600F01B
:1015D0005BFB10BD10B586B0044614216846FEF7CB
:1015E000D4FD1149206888421BD11048816B01222B
:1015F000520411438163C16A01221143C162C06A6E
:101600006946104005900C200090022001900020B7
:101610000290032003900420049005200007FEF7A9
:10162000BDFE06B010BD00000044004000100240A6
:10163000FFB50446406F83B017460D4620285CD1A5
:10164000002D0AD0002F08D0A168C001814207D127
:101650002069002804D1E80702D0012007B0F0BDBE
:10166000204660300290007C012846D0029801217B
:1016700001740020E06721206067FEF757FF2646CF
:1016800040360190378277820120A16800038142B1
:1016900002D12069002802D02F46002511E0002742
:1016A0000FE000228021204600F03CFC002815D1EC
:1016B000002F15D02168387888627F1C708A401E00
:1016C0007082708A019B002806980090E9D1002260
:1016D0004021204600F026FC002808D00320BDE76A
:1016E00028882168C005C00D8862AD1CE6E720206F
:1016F0006067029900200874B0E70220AEE7FEE7B9
:10170000F0B587B014216846FEF73FFD3148C26A44
:1017100004210A43C262C26A0A400592C26A802159
:101720000A43C262C26A0A400592C16A012529437E
:10173000C162C16A29400591C16A02263143C16272
:10174000C06A00223040059031462348FEF7E8FE8B
:1017500005273F07012210213846FEF7E1FE00224F
:1017600020213846FEF7DCFE680300901B48002469
:101770000190694602941848FEF710FE02946946EB
:101780001548009601950394FEF708FE1026019572
:1017900069463846009602950394FEF7FFFD202027
:1017A000009002946946019503943846FEF7F6FDD1
:1017B0000B4801906946009602940748FEF7EEFD3B
:1017C000002201210720FEF70BFF0720FEF7FEFE97
:1017D00007B0F0BD001002400008005000003110BA
:1017E0000000111010B50F480D490160FF210531AF
:1017F000416000218160C160012201615202826169
:101800004161016210224162C26181620721C162AD
:10181000FFF79AFB002801D0FEF7FFFC10BD000087
:10182000003001406400002010B586B00024009410
:1018300001211648019402940394049489070594A5
:1018400001601349846041607D210461C9004461E5
:10185000C160FFF729FD002801D0FEF7DEFC012062
:101860000003009069460948FFF770FD002801D089
:10187000FEF7D3FC049404A904480594FFF7F6FC92
:10188000002801D0FEF7C9FC06B010BDBC00002046
:101890005F09000010B50C480A490160E1214902C6
:1018A000416000218160C16001618161C1610C22E0
:1018B000016242614162FFF758FE002801D0FEF745
:1018C000ACFC10BD00440040F80000207047000050
:1018D0008307FF22DB0E9A408907090E99400028F2
:1018E0000BDA0007000F0838830808489B00181817
:1018F000C36993430B43C3617047830804489B004B
:101900001B181868904308431860704700ED00E00A
:1019100000E400E07047000010B50248FFF798FAB5
:1019200010BD00006400002010B5806A0021C1874E
:10193000C186FFF78CFA10BD38B504464068FF2316
:1019400005332025984204D100920B4600228021C5
:1019500007E05120005D05280DD100920B460022C2
:101960000121204600F009F8002804D0606D2843CA
:101970006065032038BD002038BDF8B51D46174608
:101980000E46044609E0681C07D0FEF7CFFD069915
:10199000401AA8420BD2002D09D020688168304639
:1019A00088432ED00020B842EDD10020F8BD206839
:1019B0004168E022914341606068C11FFD390CD14C
:1019C0000121A068C903884202D04911884204D18C
:1019D000206801684022914301600120A16A400310
:1019E000814207D121680A6882430A6021680A6837
:1019F00002430A60012040346074002020740320F8
:101A0000F8BD0120CFE7704710B5FEF795FD10BD7A
:101A100030B59DB038216846FEF7B7FB142118A8F1
:101A2000FEF7B3FB28210EA8FEF7AFFB14480168B0
:101A30000322D2029143C21489180160012003904D
:101A40001020049002250024800400950D900B9432
:101A50000A950C946846FEF7AFFF0F2018900320FC
:101A600019901A941B9401211C9418A8FEF792FE59
:101A70000EA80E951294FEF7B7FD1DB030BD000004
:101A80000070004010480168821511430160C16870
:101A90000E4A1140C16001680D4A11400160816821
:101AA0004908490081600168012292049143016064
:101AB000C168FD2212049143C16000210161054902
:101AC000C003886070470000001002400C40FF888F
:101AD000F6FFF6FE00ED00E010B50248FFF79FFCB0
:101AE00010BD0000BC000020F0B502680124A4076E
:101AF000144D154E154FA04205D0A84203D0B04258
:101B000001D0B84204D11346702293434A681A4365
:101B1000A04205D0A84203D0B04201D0B84204D1BF
:101B200003231B029A43CB681A4380239A430B6911
:101B30001A4302608A68C2620968816201214161B8
:101B4000F0BD000000040040000801400014014006
:101B500030B58468FF252D021B021343AC430B43B1
:101B60002343836030BD826870239A430A43072170
:101B70000A438260704730B5036A046A64086400EF
:101B800004628469F025AC43120122430A24A34372
:101B90000B438261036230BD30B5036A1024A34356
:101BA00003628469036A0F252D031203AC432243A9
:101BB000A024A343090119438261016230BD10B51D
:101BC000818CC90707D001684A6801235B049A43E6
:101BD000836A1A434A60818C890707D501684A687D
:101BE00001231B049A43C36A1A434A60818C490744
:101BF00007D501684A6801239B049A43036B1A4383
:101C00004A60818C090707D501684A680123DB0314
:101C10009A43436B1A434A60818CC90607D5026810
:101C2000916801231B039943836B19439160818C55
:101C3000890607D501688A6801235B039A43C36B51
:101C40001A438A60818C490612D503685A680121BB
:101C50000905046C8A4322435A60026C8A4207D108
:101C60000268516803235B059943436C1943516033
:101C7000818C090607D501684A680123DB04806C62
:101C80009A4302434A6010BDF8B500260446C66771
:101C9000FEF74CFC054620680068124F000709D586
:101CA00001212B46002249052046009700F03AF911
:101CB00000280DD12068006840070BD501212B4674
:101CC000002289052046009700F02CF9002801D059
:101CD0000320F8BD20206067A067603426740020D0
:101CE000F8BD0000FFFFFF01F8B504462669A268B1
:101CF000E76932436669102000253E43236832437A
:101D00007B491E687B4F3E4016431E602268536825
:101D100003263603B343E668334353602368A2695E
:101D20008B4201D0266A32439E680B273F02BE4396
:101D300016439E60704E2368704AB3420CD1D2683D
:101D40009207920F06D0012A3ED0022A3AD0032AE7
:101D500026D124E0012023E0694EB3420AD1D268A3
:101D60000C2632402CD0042A2ED0082A2AD00C2A45
:101D700016D114E0634EB34222D0634EB3421FD05B
:101D80008B420DD1D66803229202164018D0012250
:101D90009202B61A18D0B61A14D0964200D1082072
:101DA000564A0126403A594FF6038B4236D1002855
:101DB0000CD002280DD0042812D008281FD11CE016
:101DC0000020EDE70220EBE70420E9E7FEF798FDAD
:101DD00008E01068C00601D5384605E04C4803E02D
:101DE000FEF7AEFD002873D06268510051188142A1
:101DF00005D81103814202D303E03046F4E7012500
:101E000066E0010E06025008002330185941FEF723
:101E100085F903210902411A3E4A55E0E169B142C0
:101E200032D1030000F0C0F809070A0D06250606A6
:101E3000062B0600E3E7FEF763FD1CE0FEF770FDEE
:101E400019E010686168C00602D54808324A01E00E
:101E5000324A48088018FEF74BF980B20146304AF2
:101E600010399142CBD8511C01400007400F084364
:101E70002CE0FEF765FD616840004A08EAE761680A
:101E8000012248081204E5E7030000F08DF8090775
:101E90000A0D06260606062C0600B0E7FEF730FD02
:101EA0001DE0FEF73DFD1AE010686168C00602D52E
:101EB0004808C01902E016484A081018FEF718F939
:101EC00080B20146164A1039914298D82168C860FC
:101ED0000020206660662846F8BDFEF731FD616887
:101EE0004A088018EAE7616848088019E6E70000B8
:101EF00000480040F369FFEF003801404010024005
:101F000000440040004C00400050004000093D00EB
:101F10000024F400FFFC0F0000127A000048E801E2
:101F2000EFFF0000FFB581B017460E4604460A9D3C
:101F300009E0681C07D0FEF7F9FA0499401AA84294
:101F40000CD8002D0AD02068C1693046884318D0CB
:101F50000020B842EDD0002005B0F0BD2068016837
:101F6000FF22A1329143016020688168490849003D
:101F7000816020206067A067002060342074032007
:101F8000EAE70120E5E700000FB410B503A9044B10
:101F9000044A029800F024F810BC08BC04B01847AA
:101FA000312100082C00002030B47446641E2578CE
:101FB000641CAB4200D21D46635D5B00E31830BC7D
:101FC000184702E008C8121F08C1002AFAD170475A
:101FD0007047002001E001C1121F002AFBD17047A9
:101FE000FFB58DB00446002506E025280AD0109ADA
:101FF0000F999047641C6D1C20780028F5D1284665
:1020000011B0F0BD00270121484A009700E00743C6
:10201000641C23780846203B98401042F7D1207872
:102020002E2817D1042007436078641C2A280CD17D
:102030000E98641C02C800910E900BE000990A22D1
:10204000514330394018641C0090207801463039E3
:102050000929F3D920780028D1D0642808D069282C
:1020600006D075281ED0109A0F9990476D1C5BE022
:102070000A200E99019001C90E91002802DA40420F
:102080002D2102E0390504D52B216A461172012168
:1020900003E0F90704D02021F7E70BAE0B910DE028
:1020A0000021FAE70A200E99019001C90E91F7E785
:1020B0000199FEF71DF83031761E31700028F7D1F6
:1020C00003A8801B20300190780701D5009801E01B
:1020D000012000900199884201DD401A00E00020B3
:1020E0000027009006E002A8109AC05D0F99904763
:1020F0006D1C7F1C0B988742F5DB04E0109A3020A2
:102100000F9990476D1C0099481E00900029F5DC3E
:1021100005E03078109A761C0F9990476D1C019954
:10212000481E01900029F4DC641C65E709280100C1
:1021300013B5044B012269460348FFF779FA00986A
:102140001CBD0000FFFF0000F8000020FEB50527C1
:1021500006463F07002210213846FEF7E1F9114DEF
:10216000802426432E700026F643012301AA294627
:102170000D480096FEF76AFF0021684601712C7039
:10218000012301AA294608480096FEF75FFF0122B5
:1021900010213846FEF7C4F90520FEF765F86846B9
:1021A0000079FEBD1800002064000020FEB5052760
:1021B0000E4605463F07002210213846FEF7B0F9CB
:1021C0000D4C012325700025ED4301AA21460B4843
:1021D0000095FEF73BFF2670012301AA2146074820
:1021E0000095FEF733FF012210213846FEF798F9DB
:1021F0000520FEF739F8FEBD18000020640000201D
:1022000010B57C211020FFF7D1FF7C211120FFF7B2
:10221000CDFF03210D20FFF7C9FF10BDFEF794F994
:10222000FFF7F6FBFFF76CFAFFF7FEFAFFF732FB5A
:10223000FFF7D8FA1E4C1F4D002660780128FCD10C
:10224000A0780128F9D11A4FA6600C37A068385C35
:10225000FFF77CFFA1686854491CA1600C29F5DBDD
:10226000A67015A0FFF790FEA660A068295C28184C
:10227000407809020143E18013A0FFF785FEA068C2
:10228000801CA0600628F0DB11A0FFF77DFE062071
:10229000A060295C2818407809020143E1800AA067
:1022A000FFF772FEA068801CA0600C28F1DBC4E779
:1022B00000000020300000200D0A4759524F2044F2
:1022C0006174613A2020000025642C202020200029
:1022D0000D0A416363656C65726F6D65746572208C
:1022E000446174613A2020000000000000000000FA
:1022F0000102030406070809030406080C1018204D
:102300003000000000010203040000002C2300083C
:102310000000002030000000C21F00085C230008FD
:102320003000002048050000D21F00080000000017
:102330000000000000000000232225242726292871
:102340002B2A2D2C000000000000200001000000BE
:0C2350000400000000000000000000007D
:04000005080000C12E
:00000001FF
